{
  "contractName": "Election",
  "abi": [
    {
      "inputs": [],
      "payable": false,
      "stateMutability": "nonpayable",
      "type": "constructor"
    },
    {
      "anonymous": false,
      "inputs": [
        {
          "indexed": false,
          "internalType": "string",
          "name": "_name",
          "type": "string"
        }
      ],
      "name": "candidateAddedEvent",
      "type": "event"
    },
    {
      "anonymous": false,
      "inputs": [
        {
          "indexed": true,
          "internalType": "uint256",
          "name": "_candidateId",
          "type": "uint256"
        }
      ],
      "name": "votedEvent",
      "type": "event"
    },
    {
      "constant": true,
      "inputs": [],
      "name": "candidate",
      "outputs": [
        {
          "internalType": "string",
          "name": "",
          "type": "string"
        }
      ],
      "payable": false,
      "stateMutability": "view",
      "type": "function"
    },
    {
      "constant": true,
      "inputs": [
        {
          "internalType": "uint256",
          "name": "",
          "type": "uint256"
        }
      ],
      "name": "candidates",
      "outputs": [
        {
          "internalType": "uint256",
          "name": "id",
          "type": "uint256"
        },
        {
          "internalType": "string",
          "name": "name",
          "type": "string"
        },
        {
          "internalType": "uint256",
          "name": "voteCount",
          "type": "uint256"
        },
        {
          "internalType": "string",
          "name": "details",
          "type": "string"
        },
        {
          "internalType": "string",
          "name": "election_id",
          "type": "string"
        }
      ],
      "payable": false,
      "stateMutability": "view",
      "type": "function"
    },
    {
      "constant": true,
      "inputs": [],
      "name": "candidatesCount",
      "outputs": [
        {
          "internalType": "uint256",
          "name": "",
          "type": "uint256"
        }
      ],
      "payable": false,
      "stateMutability": "view",
      "type": "function"
    },
    {
      "constant": true,
      "inputs": [],
      "name": "time2",
      "outputs": [
        {
          "internalType": "uint256",
          "name": "",
          "type": "uint256"
        }
      ],
      "payable": false,
      "stateMutability": "view",
      "type": "function"
    },
    {
      "constant": true,
      "inputs": [
        {
          "internalType": "address",
          "name": "",
          "type": "address"
        }
      ],
      "name": "voters",
      "outputs": [
        {
          "internalType": "bool",
          "name": "",
          "type": "bool"
        }
      ],
      "payable": false,
      "stateMutability": "view",
      "type": "function"
    },
    {
      "constant": false,
      "inputs": [
        {
          "internalType": "string",
          "name": "_name",
          "type": "string"
        },
        {
          "internalType": "string",
          "name": "_details",
          "type": "string"
        },
        {
          "internalType": "string",
          "name": "_election_id",
          "type": "string"
        }
      ],
      "name": "addCandidate",
      "outputs": [],
      "payable": false,
      "stateMutability": "nonpayable",
      "type": "function"
    },
    {
      "constant": false,
      "inputs": [
        {
          "internalType": "uint256",
          "name": "_candidateId",
          "type": "uint256"
        }
      ],
      "name": "vote",
      "outputs": [],
      "payable": false,
      "stateMutability": "nonpayable",
      "type": "function"
    }
  ],
  "bytecode": "0x60806040527395c40e2e2ac365e2c5a583f40e0146ff848202de600260006101000a81548173ffffffffffffffffffffffffffffffffffffffff021916908373ffffffffffffffffffffffffffffffffffffffff1602179055506362b45dd260035534801561006d57600080fd5b50610bc98061007d6000396000f3fe608060405234801561001057600080fd5b506004361061007d5760003560e01c80636c8381f81161005b5780636c8381f81461025b578063a3ec138d146102de578063ad71f8dc1461033a578063d6f8ecae146105235761007d565b80630121b93f146100825780632d35a8a2146100b05780633477ee2e146100ce575b600080fd5b6100ae6004803603602081101561009857600080fd5b8101908080359060200190929190505050610541565b005b6100b861066e565b6040518082815260200191505060405180910390f35b6100fa600480360360208110156100e457600080fd5b8101908080359060200190929190505050610674565b60405180868152602001806020018581526020018060200180602001848103845288818151815260200191508051906020019080838360005b8381101561014e578082015181840152602081019050610133565b50505050905090810190601f16801561017b5780820380516001836020036101000a031916815260200191505b50848103835286818151815260200191508051906020019080838360005b838110156101b4578082015181840152602081019050610199565b50505050905090810190601f1680156101e15780820380516001836020036101000a031916815260200191505b50848103825285818151815260200191508051906020019080838360005b8381101561021a5780820151818401526020810190506101ff565b50505050905090810190601f1680156102475780820380516001836020036101000a031916815260200191505b509850505050505050505060405180910390f35b610263610872565b6040518080602001828103825283818151815260200191508051906020019080838360005b838110156102a3578082015181840152602081019050610288565b50505050905090810190601f1680156102d05780820380516001836020036101000a031916815260200191505b509250505060405180910390f35b610320600480360360208110156102f457600080fd5b81019080803573ffffffffffffffffffffffffffffffffffffffff169060200190929190505050610910565b604051808215151515815260200191505060405180910390f35b6105216004803603606081101561035057600080fd5b810190808035906020019064010000000081111561036d57600080fd5b82018360208201111561037f57600080fd5b803590602001918460018302840111640100000000831117156103a157600080fd5b91908080601f016020809104026020016040519081016040528093929190818152602001838380828437600081840152601f19601f8201169050808301925050505050505091929192908035906020019064010000000081111561040457600080fd5b82018360208201111561041657600080fd5b8035906020019184600183028401116401000000008311171561043857600080fd5b91908080601f016020809104026020016040519081016040528093929190818152602001838380828437600081840152601f19601f8201169050808301925050505050505091929192908035906020019064010000000081111561049b57600080fd5b8201836020820111156104ad57600080fd5b803590602001918460018302840111640100000000831117156104cf57600080fd5b91908080601f016020809104026020016040519081016040528093929190818152602001838380828437600081840152601f19601f820116905080830192505050505050509192919290505050610930565b005b61052b610ae9565b6040518082815260200191505060405180910390f35b60035442101561055057600080fd5b600160003373ffffffffffffffffffffffffffffffffffffffff1673ffffffffffffffffffffffffffffffffffffffff16815260200190815260200160002060009054906101000a900460ff16156105a757600080fd5b6000811180156105b957506004548111155b6105c257600080fd5b60018060003373ffffffffffffffffffffffffffffffffffffffff1673ffffffffffffffffffffffffffffffffffffffff16815260200190815260200160002060006101000a81548160ff02191690831515021790555060008082815260200190815260200160002060020160008154809291906001019190505550807ffff3c900d938d21d0990d786e819f29b8d05c1ef587b462b939609625b684b1660405160405180910390a250565b60045481565b6000602052806000526040600020600091509050806000015490806001018054600181600116156101000203166002900480601f0160208091040260200160405190810160405280929190818152602001828054600181600116156101000203166002900480156107265780601f106106fb57610100808354040283529160200191610726565b820191906000526020600020905b81548152906001019060200180831161070957829003601f168201915b505050505090806002015490806003018054600181600116156101000203166002900480601f0160208091040260200160405190810160405280929190818152602001828054600181600116156101000203166002900480156107ca5780601f1061079f576101008083540402835291602001916107ca565b820191906000526020600020905b8154815290600101906020018083116107ad57829003601f168201915b505050505090806004018054600181600116156101000203166002900480601f0160208091040260200160405190810160405280929190818152602001828054600181600116156101000203166002900480156108685780601f1061083d57610100808354040283529160200191610868565b820191906000526020600020905b81548152906001019060200180831161084b57829003601f168201915b5050505050905085565b60058054600181600116156101000203166002900480601f0160208091040260200160405190810160405280929190818152602001828054600181600116156101000203166002900480156109085780601f106108dd57610100808354040283529160200191610908565b820191906000526020600020905b8154815290600101906020018083116108eb57829003601f168201915b505050505081565b60016020528060005260406000206000915054906101000a900460ff1681565b600260009054906101000a900473ffffffffffffffffffffffffffffffffffffffff1673ffffffffffffffffffffffffffffffffffffffff163373ffffffffffffffffffffffffffffffffffffffff161461098a57600080fd5b6004600081548092919060010191905055506040518060a00160405280600454815260200184815260200160008152602001838152602001828152506000806004548152602001908152602001600020600082015181600001556020820151816001019080519060200190610a00929190610aef565b50604082015181600201556060820151816003019080519060200190610a27929190610aef565b506080820151816004019080519060200190610a44929190610aef565b509050507fc9074cda76ace40c2d971623d7f0d8d9559d62f79eb4108df634342c36978e83836040518080602001828103825283818151815260200191508051906020019080838360005b83811015610aaa578082015181840152602081019050610a8f565b50505050905090810190601f168015610ad75780820380516001836020036101000a031916815260200191505b509250505060405180910390a1505050565b60035481565b828054600181600116156101000203166002900490600052602060002090601f016020900481019282601f10610b3057805160ff1916838001178555610b5e565b82800160010185558215610b5e579182015b82811115610b5d578251825591602001919060010190610b42565b5b509050610b6b9190610b6f565b5090565b610b9191905b80821115610b8d576000816000905550600101610b75565b5090565b9056fea265627a7a72315820f7c8c6773b80f6caf5ed6231deb5d8699d78280fff3a3e8313768df8b703050364736f6c63430005100032",
  "source": "pragma solidity ^0.5.16;\n\ncontract Election {\n\n    struct Candidate {\n        uint id;\n        string name;\n        uint voteCount;\n        string details;\n        string election_id;\n    }\n\n    mapping(uint => Candidate) public candidates;\n    mapping(address => bool) public voters;\n\n\n    address owner=0x95C40E2e2ac365e2C5A583f40e0146FF848202De;\n    modifier ownerOnly(){\n        require(msg.sender == owner);\n        _;\n    }\n\n\n    // uint256 public time1=1655987666;\n    // modifier registrationPhase(){\n    //     require(block.timestamp<=time1);\n    //     _;\n    // }\n\n    uint256 public time2=1655987666;\n    modifier votingPhase(){\n        require(block.timestamp>=time2);\n        _;\n    }\n\n    uint public candidatesCount;\n\n    string public candidate;\n\n    constructor() public {}\n\n    event votedEvent(\n        uint indexed _candidateId\n    );\n\n    event candidateAddedEvent(\n        string  _name\n    );\n\n    function addCandidate(string memory _name, string memory _details, string memory _election_id) public ownerOnly {\n        candidatesCount++;\n        candidates[candidatesCount] = Candidate(candidatesCount, _name, 0, _details, _election_id);\n        emit candidateAddedEvent(_name);\n    }\n\n    function vote(uint _candidateId) public votingPhase{\n        require(!voters[msg.sender]);\n\n        require(_candidateId > 0 && _candidateId <= candidatesCount);\n        \n        voters[msg.sender] = true;\n        \n        candidates[_candidateId].voteCount++;\n    \n        emit votedEvent(_candidateId);\n    }\n\n}",
  "sourcePath": "C:\\Users\\varun m\\Downloads\\vote\\E-Voting-App-master\\blockchain\\src\\contracts\\Election.sol",
  "compiler": {
    "name": "solc",
    "version": "0.5.16+commit.9c3226ce.Emscripten.clang"
  },
  "schemaVersion": "3.4.7",
  "updatedAt": "2022-06-23T22:43:07.806Z",
  "networkType": "ethereum",
  "devdoc": {
    "methods": {}
  },
  "userdoc": {
    "methods": {}
  }
}