{
  "contractName": "Election",
  "abi": [
    {
      "inputs": [],
      "payable": false,
      "stateMutability": "nonpayable",
      "type": "constructor"
    },
    {
      "anonymous": false,
      "inputs": [
        {
          "indexed": false,
          "internalType": "string",
          "name": "_Election_name",
          "type": "string"
        }
      ],
      "name": "candidateAddedEvent",
      "type": "event"
    },
    {
      "anonymous": false,
      "inputs": [
        {
          "indexed": true,
          "internalType": "uint256",
          "name": "_candidateId",
          "type": "uint256"
        }
      ],
      "name": "votedEvent",
      "type": "event"
    },
    {
      "constant": true,
      "inputs": [],
      "name": "candidate",
      "outputs": [
        {
          "internalType": "string",
          "name": "",
          "type": "string"
        }
      ],
      "payable": false,
      "stateMutability": "view",
      "type": "function"
    },
    {
      "constant": true,
      "inputs": [
        {
          "internalType": "uint256",
          "name": "",
          "type": "uint256"
        }
      ],
      "name": "candidates",
      "outputs": [
        {
          "internalType": "uint256",
          "name": "id",
          "type": "uint256"
        },
        {
          "internalType": "string",
          "name": "name",
          "type": "string"
        },
        {
          "internalType": "uint256",
          "name": "voteCount",
          "type": "uint256"
        },
        {
          "internalType": "string",
          "name": "details",
          "type": "string"
        },
        {
          "internalType": "string",
          "name": "election_id",
          "type": "string"
        }
      ],
      "payable": false,
      "stateMutability": "view",
      "type": "function"
    },
    {
      "constant": true,
      "inputs": [],
      "name": "candidatesCount",
      "outputs": [
        {
          "internalType": "uint256",
          "name": "",
          "type": "uint256"
        }
      ],
      "payable": false,
      "stateMutability": "view",
      "type": "function"
    },
    {
      "constant": true,
      "inputs": [
        {
          "internalType": "uint256",
          "name": "",
          "type": "uint256"
        },
        {
          "internalType": "address",
          "name": "",
          "type": "address"
        }
      ],
      "name": "election_voter",
      "outputs": [
        {
          "internalType": "bool",
          "name": "",
          "type": "bool"
        }
      ],
      "payable": false,
      "stateMutability": "view",
      "type": "function"
    },
    {
      "constant": true,
      "inputs": [
        {
          "internalType": "uint256",
          "name": "",
          "type": "uint256"
        }
      ],
      "name": "elections",
      "outputs": [
        {
          "internalType": "bool",
          "name": "",
          "type": "bool"
        }
      ],
      "payable": false,
      "stateMutability": "view",
      "type": "function"
    },
    {
      "constant": true,
      "inputs": [],
      "name": "phase",
      "outputs": [
        {
          "internalType": "string",
          "name": "",
          "type": "string"
        }
      ],
      "payable": false,
      "stateMutability": "view",
      "type": "function"
    },
    {
      "constant": true,
      "inputs": [],
      "name": "voter_addr",
      "outputs": [
        {
          "internalType": "address",
          "name": "",
          "type": "address"
        }
      ],
      "payable": false,
      "stateMutability": "view",
      "type": "function"
    },
    {
      "constant": true,
      "inputs": [
        {
          "internalType": "address",
          "name": "",
          "type": "address"
        }
      ],
      "name": "voters",
      "outputs": [
        {
          "internalType": "bool",
          "name": "",
          "type": "bool"
        }
      ],
      "payable": false,
      "stateMutability": "view",
      "type": "function"
    },
    {
      "constant": false,
      "inputs": [
        {
          "internalType": "string",
          "name": "_name",
          "type": "string"
        },
        {
          "internalType": "string",
          "name": "_details",
          "type": "string"
        },
        {
          "internalType": "string",
          "name": "_election_id",
          "type": "string"
        }
      ],
      "name": "addCandidate",
      "outputs": [],
      "payable": false,
      "stateMutability": "nonpayable",
      "type": "function"
    },
    {
      "constant": false,
      "inputs": [
        {
          "internalType": "uint256",
          "name": "_candidateId",
          "type": "uint256"
        },
        {
          "internalType": "uint256",
          "name": "_electionId",
          "type": "uint256"
        }
      ],
      "name": "vote",
      "outputs": [],
      "payable": false,
      "stateMutability": "nonpayable",
      "type": "function"
    },
    {
      "constant": false,
      "inputs": [
        {
          "internalType": "address",
          "name": "addr",
          "type": "address"
        }
      ],
      "name": "voter_account",
      "outputs": [],
      "payable": false,
      "stateMutability": "nonpayable",
      "type": "function"
    },
    {
      "constant": false,
      "inputs": [],
      "name": "changePhase",
      "outputs": [],
      "payable": false,
      "stateMutability": "nonpayable",
      "type": "function"
    }
  ],
  "bytecode": "0x60806040527395c40e2e2ac365e2c5a583f40e0146ff848202de600460006101000a81548173ffffffffffffffffffffffffffffffffffffffff021916908373ffffffffffffffffffffffffffffffffffffffff16021790555073ed7563d9690964321871917b72f83a9459ffa8d6600560006101000a81548173ffffffffffffffffffffffffffffffffffffffff021916908373ffffffffffffffffffffffffffffffffffffffff1602179055506040518060400160405280600c81526020017f526567697374726174696f6e000000000000000000000000000000000000000081525060079080519060200190620000fb92919062000110565b503480156200010957600080fd5b50620001bf565b828054600181600116156101000203166002900490600052602060002090601f016020900481019282601f106200015357805160ff191683800117855562000184565b8280016001018555821562000184579182015b828111156200018357825182559160200191906001019062000166565b5b50905062000193919062000197565b5090565b620001bc91905b80821115620001b85760008160009055506001016200019e565b5090565b90565b61132480620001cf6000396000f3fe608060405234801561001057600080fd5b50600436106100b45760003560e01c8063a3ec138d11610071578063a3ec138d146103dd578063a9ca097e14610439578063ad71f8dc1461047d578063b1c9fe6e14610666578063b384abef146106e9578063db6f595314610721576100b4565b80632d35a8a2146100b95780633477ee2e146100d75780633e9344a0146102645780635e6fef01146102ca5780636c8381f8146103105780637c6af35514610393575b600080fd5b6100c161072b565b6040518082815260200191505060405180910390f35b610103600480360360208110156100ed57600080fd5b8101908080359060200190929190505050610731565b60405180868152602001806020018581526020018060200180602001848103845288818151815260200191508051906020019080838360005b8381101561015757808201518184015260208101905061013c565b50505050905090810190601f1680156101845780820380516001836020036101000a031916815260200191505b50848103835286818151815260200191508051906020019080838360005b838110156101bd5780820151818401526020810190506101a2565b50505050905090810190601f1680156101ea5780820380516001836020036101000a031916815260200191505b50848103825285818151815260200191508051906020019080838360005b83811015610223578082015181840152602081019050610208565b50505050905090810190601f1680156102505780820380516001836020036101000a031916815260200191505b509850505050505050505060405180910390f35b6102b06004803603604081101561027a57600080fd5b8101908080359060200190929190803573ffffffffffffffffffffffffffffffffffffffff16906020019092919050505061092f565b604051808215151515815260200191505060405180910390f35b6102f6600480360360208110156102e057600080fd5b810190808035906020019092919050505061095e565b604051808215151515815260200191505060405180910390f35b61031861097e565b6040518080602001828103825283818151815260200191508051906020019080838360005b8381101561035857808201518184015260208101905061033d565b50505050905090810190601f1680156103855780820380516001836020036101000a031916815260200191505b509250505060405180910390f35b61039b610a1c565b604051808273ffffffffffffffffffffffffffffffffffffffff1673ffffffffffffffffffffffffffffffffffffffff16815260200191505060405180910390f35b61041f600480360360208110156103f357600080fd5b81019080803573ffffffffffffffffffffffffffffffffffffffff169060200190929190505050610a42565b604051808215151515815260200191505060405180910390f35b61047b6004803603602081101561044f57600080fd5b81019080803573ffffffffffffffffffffffffffffffffffffffff169060200190929190505050610a62565b005b6106646004803603606081101561049357600080fd5b81019080803590602001906401000000008111156104b057600080fd5b8201836020820111156104c257600080fd5b803590602001918460018302840111640100000000831117156104e457600080fd5b91908080601f016020809104026020016040519081016040528093929190818152602001838380828437600081840152601f19601f8201169050808301925050505050505091929192908035906020019064010000000081111561054757600080fd5b82018360208201111561055957600080fd5b8035906020019184600183028401116401000000008311171561057b57600080fd5b91908080601f016020809104026020016040519081016040528093929190818152602001838380828437600081840152601f19601f820116905080830192505050505050509192919290803590602001906401000000008111156105de57600080fd5b8201836020820111156105f057600080fd5b8035906020019184600183028401116401000000008311171561061257600080fd5b91908080601f016020809104026020016040519081016040528093929190818152602001838380828437600081840152601f19601f820116905080830192505050505050509192919290505050610aa6565b005b61066e610cb7565b6040518080602001828103825283818151815260200191508051906020019080838360005b838110156106ae578082015181840152602081019050610693565b50505050905090810190601f1680156106db5780820380516001836020036101000a031916815260200191505b509250505060405180910390f35b61071f600480360360408110156106ff57600080fd5b810190808035906020019092919080359060200190929190505050610d55565b005b610729610f48565b005b60065481565b6000602052806000526040600020600091509050806000015490806001018054600181600116156101000203166002900480601f0160208091040260200160405190810160405280929190818152602001828054600181600116156101000203166002900480156107e35780601f106107b8576101008083540402835291602001916107e3565b820191906000526020600020905b8154815290600101906020018083116107c657829003601f168201915b505050505090806002015490806003018054600181600116156101000203166002900480601f0160208091040260200160405190810160405280929190818152602001828054600181600116156101000203166002900480156108875780601f1061085c57610100808354040283529160200191610887565b820191906000526020600020905b81548152906001019060200180831161086a57829003601f168201915b505050505090806004018054600181600116156101000203166002900480601f0160208091040260200160405190810160405280929190818152602001828054600181600116156101000203166002900480156109255780601f106108fa57610100808354040283529160200191610925565b820191906000526020600020905b81548152906001019060200180831161090857829003601f168201915b5050505050905085565b60036020528160005260406000206020528060005260406000206000915091509054906101000a900460ff1681565b60026020528060005260406000206000915054906101000a900460ff1681565b60088054600181600116156101000203166002900480601f016020809104026020016040519081016040528092919081815260200182805460018160011615610100020316600290048015610a145780601f106109e957610100808354040283529160200191610a14565b820191906000526020600020905b8154815290600101906020018083116109f757829003601f168201915b505050505081565b600960009054906101000a900473ffffffffffffffffffffffffffffffffffffffff1681565b60016020528060005260406000206000915054906101000a900460ff1681565b80600960006101000a81548173ffffffffffffffffffffffffffffffffffffffff021916908373ffffffffffffffffffffffffffffffffffffffff16021790555050565b600460009054906101000a900473ffffffffffffffffffffffffffffffffffffffff1673ffffffffffffffffffffffffffffffffffffffff163373ffffffffffffffffffffffffffffffffffffffff161480610b4f5750600560009054906101000a900473ffffffffffffffffffffffffffffffffffffffff1673ffffffffffffffffffffffffffffffffffffffff163373ffffffffffffffffffffffffffffffffffffffff16145b610b5857600080fd5b6006600081548092919060010191905055506040518060a00160405280600654815260200184815260200160008152602001838152602001828152506000806006548152602001908152602001600020600082015181600001556020820151816001019080519060200190610bce9291906111ca565b50604082015181600201556060820151816003019080519060200190610bf59291906111ca565b506080820151816004019080519060200190610c129291906111ca565b509050507fc9074cda76ace40c2d971623d7f0d8d9559d62f79eb4108df634342c36978e83836040518080602001828103825283818151815260200191508051906020019080838360005b83811015610c78578082015181840152602081019050610c5d565b50505050905090810190601f168015610ca55780820380516001836020036101000a031916815260200191505b509250505060405180910390a1505050565b60078054600181600116156101000203166002900480601f016020809104026020016040519081016040528092919081815260200182805460018160011615610100020316600290048015610d4d5780601f10610d2257610100808354040283529160200191610d4d565b820191906000526020600020905b815481529060010190602001808311610d3057829003601f168201915b505050505081565b600960009054906101000a900473ffffffffffffffffffffffffffffffffffffffff1673ffffffffffffffffffffffffffffffffffffffff163373ffffffffffffffffffffffffffffffffffffffff1614610daf57600080fd5b6003600082815260200190815260200160002060003373ffffffffffffffffffffffffffffffffffffffff1673ffffffffffffffffffffffffffffffffffffffff16815260200190815260200160002060009054906101000a900460ff1615610e1757600080fd5b600082118015610e2957506006548211155b610e3257600080fd5b60018060003373ffffffffffffffffffffffffffffffffffffffff1673ffffffffffffffffffffffffffffffffffffffff16815260200190815260200160002060006101000a81548160ff02191690831515021790555060016003600083815260200190815260200160002060003373ffffffffffffffffffffffffffffffffffffffff1673ffffffffffffffffffffffffffffffffffffffff16815260200190815260200160002060006101000a81548160ff02191690831515021790555060008083815260200190815260200160002060020160008154809291906001019190505550817ffff3c900d938d21d0990d786e819f29b8d05c1ef587b462b939609625b684b1660405160405180910390a25050565b60405160200180807f526567697374726174696f6e0000000000000000000000000000000000000000815250600c0190506040516020818303038152906040528051906020012060076040516020018082805460018160011615610100020316600290048015610fef5780601f10610fcd576101008083540402835291820191610fef565b820191906000526020600020905b815481529060010190602001808311610fdb575b5050915050604051602081830303815290604052805190602001201415611061576040518060400160405280600681526020017f566f74696e6700000000000000000000000000000000000000000000000000008152506007908051906020019061105b92919061124a565b506111c8565b60405160200180807f566f74696e670000000000000000000000000000000000000000000000000000815250600601905060405160208183030381529060405280519060200120600760405160200180828054600181600116156101000203166002900480156111085780601f106110e6576101008083540402835291820191611108565b820191906000526020600020905b8154815290600101906020018083116110f4575b505091505060405160208183030381529060405280519060200120141561117a576040518060400160405280600681526020017f526573756c7400000000000000000000000000000000000000000000000000008152506007908051906020019061117492919061124a565b506111c7565b6040518060400160405280600c81526020017f526567697374726174696f6e0000000000000000000000000000000000000000815250600790805190602001906111c592919061124a565b505b5b565b828054600181600116156101000203166002900490600052602060002090601f016020900481019282601f1061120b57805160ff1916838001178555611239565b82800160010185558215611239579182015b8281111561123857825182559160200191906001019061121d565b5b50905061124691906112ca565b5090565b828054600181600116156101000203166002900490600052602060002090601f016020900481019282601f1061128b57805160ff19168380011785556112b9565b828001600101855582156112b9579182015b828111156112b857825182559160200191906001019061129d565b5b5090506112c691906112ca565b5090565b6112ec91905b808211156112e85760008160009055506001016112d0565b5090565b9056fea265627a7a723158209cee5929edb71abe0741fc7306f5da747884a3ec7d67c733107c039497e10fee64736f6c63430005100032",
  "source": "pragma solidity ^0.5.16;\n\ncontract Election {\n\n    struct Candidate {\n        uint id;\n        string name;\n        uint voteCount;\n        string details;\n        string election_id;\n       \n    }\n\n    mapping(uint => Candidate) public candidates;\n    mapping(address => bool) public voters;\n    mapping(uint => bool) public elections;\n    mapping(uint => mapping(address=>bool)) public election_voter;\n    \n\n\n    address owner1=0x95C40E2e2ac365e2C5A583f40e0146FF848202De ;\n    address owner2=0xED7563d9690964321871917b72f83A9459ffa8D6; \n    modifier ownerOnly(){\n        require(msg.sender == owner1 || msg.sender==owner2);\n        _;\n    }\n\n\n    // uint256 public time1=1655987666;\n    // modifier registrationPhase(){\n    //     require(block.timestamp<=time1);\n    //     _;\n    // }\n\n    // uint256 public time2=1655987666;\n    // modifier votingPhase(){\n    //     require(block.timestamp>=time2);\n    //     _;\n    // }\n\n    uint public candidatesCount;\n    string public phase=\"Registration\";\n    string public candidate;\n    address public voter_addr;\n\n    constructor() public {}\n\n    event votedEvent(\n        uint indexed _candidateId\n    );\n\n    event candidateAddedEvent(\n        string  _Election_name\n    );\n\n    function addCandidate(string memory _name, string memory _details, string memory _election_id) public ownerOnly {\n        candidatesCount++;\n        candidates[candidatesCount] = Candidate(candidatesCount, _name, 0, _details, _election_id);\n        emit candidateAddedEvent(_name);\n    }\n\n    function vote(uint _candidateId,uint _electionId) public {\n        require(msg.sender == voter_addr);\n        require( !election_voter[_electionId][msg.sender]);\n\n        require(_candidateId > 0 && _candidateId <= candidatesCount);\n        \n        voters[msg.sender] = true;\n        election_voter[_electionId][msg.sender]=true;\n        \n        \n        candidates[_candidateId].voteCount++;\n    \n        emit votedEvent(_candidateId);\n    }\n\n    function voter_account(address addr) public{\n        voter_addr=addr;\n    }\n    function changePhase() public{\n        if(keccak256(abi.encodePacked(phase)) == keccak256(abi.encodePacked(\"Registration\")))\n        {\n            phase=\"Voting\";\n        }\n       else if(keccak256(abi.encodePacked(phase)) == keccak256(abi.encodePacked(\"Voting\"))){\n        phase=\"Result\";\n       }\n       else{\n        phase=\"Registration\"\n;       }\n    }\n\n}",
  "sourcePath": "C:\\Users\\varun m\\Downloads\\vote\\E-Voting-App-master\\blockchain\\src\\contracts\\Election.sol",
  "compiler": {
    "name": "solc",
    "version": "0.5.16+commit.9c3226ce.Emscripten.clang"
  },
  "schemaVersion": "3.4.7",
  "updatedAt": "2022-06-26T19:22:13.115Z",
  "networkType": "ethereum",
  "devdoc": {
    "methods": {}
  },
  "userdoc": {
    "methods": {}
  }
}